{
  "contractName": "AttendanceContract",
  "abi": [
    {
      "anonymous": false,
      "inputs": [
        {
          "indexed": true,
          "internalType": "uint256",
          "name": "studentId",
          "type": "uint256"
        },
        {
          "indexed": false,
          "internalType": "string",
          "name": "name",
          "type": "string"
        },
        {
          "indexed": false,
          "internalType": "uint256",
          "name": "attendance",
          "type": "uint256"
        }
      ],
      "name": "AttendanceMarked",
      "type": "event"
    },
    {
      "inputs": [
        {
          "internalType": "uint256",
          "name": "",
          "type": "uint256"
        },
        {
          "internalType": "address",
          "name": "",
          "type": "address"
        }
      ],
      "name": "students",
      "outputs": [
        {
          "internalType": "string",
          "name": "name",
          "type": "string"
        },
        {
          "internalType": "uint256",
          "name": "attendance",
          "type": "uint256"
        }
      ],
      "stateMutability": "view",
      "type": "function",
      "constant": true
    },
    {
      "inputs": [
        {
          "internalType": "uint256",
          "name": "_studentId",
          "type": "uint256"
        },
        {
          "internalType": "string",
          "name": "_name",
          "type": "string"
        }
      ],
      "name": "enrollStudent",
      "outputs": [],
      "stateMutability": "nonpayable",
      "type": "function"
    },
    {
      "inputs": [
        {
          "internalType": "uint256",
          "name": "_studentId",
          "type": "uint256"
        }
      ],
      "name": "markAttendance",
      "outputs": [],
      "stateMutability": "nonpayable",
      "type": "function"
    },
    {
      "inputs": [
        {
          "internalType": "uint256",
          "name": "_studentId",
          "type": "uint256"
        }
      ],
      "name": "getStudentAttendance",
      "outputs": [
        {
          "internalType": "string",
          "name": "",
          "type": "string"
        },
        {
          "internalType": "uint256",
          "name": "",
          "type": "uint256"
        }
      ],
      "stateMutability": "view",
      "type": "function",
      "constant": true
    },
    {
      "inputs": [],
      "name": "getClassAttendance",
      "outputs": [
        {
          "internalType": "uint256[]",
          "name": "",
          "type": "uint256[]"
        },
        {
          "internalType": "string[]",
          "name": "",
          "type": "string[]"
        },
        {
          "internalType": "uint256[]",
          "name": "",
          "type": "uint256[]"
        }
      ],
      "stateMutability": "view",
      "type": "function",
      "constant": true
    }
  ],
  "bytecode": "0x608060405234801561001057600080fd5b5061122d806100206000396000f3fe608060405234801561001057600080fd5b50600436106100575760003560e01c806314b3e7651461005c578063899290d61461008d578063ade4f8a2146100a9578063f7794a0d146100c5578063fcfedaa5146100e5575b600080fd5b61007660048036038101906100719190610b80565b610116565b604051610084929190610f63565b60405180910390f35b6100a760048036038101906100a29190610be5565b610264565b005b6100c360048036038101906100be9190610b80565b6103d0565b005b6100cd6105bb565b6040516100dc93929190610f17565b60405180910390f35b6100ff60048036038101906100fa9190610ba9565b6108df565b60405161010d929190610f63565b60405180910390f35b6060600080600084815260200190815260200160002060003373ffffffffffffffffffffffffffffffffffffffff1673ffffffffffffffffffffffffffffffffffffffff16815260200190815260200160002060000160008085815260200190815260200160002060003373ffffffffffffffffffffffffffffffffffffffff1673ffffffffffffffffffffffffffffffffffffffff16815260200190815260200160002060010154818054600181600116156101000203166002900480601f0160208091040260200160405190810160405280929190818152602001828054600181600116156101000203166002900480156102545780601f1061022957610100808354040283529160200191610254565b820191906000526020600020905b81548152906001019060200180831161023757829003601f168201915b5050505050915091509150915091565b60008151116102a8576040517f08c379a000000000000000000000000000000000000000000000000000000000815260040161029f90610fe3565b60405180910390fd5b600080600084815260200190815260200160002060003373ffffffffffffffffffffffffffffffffffffffff1673ffffffffffffffffffffffffffffffffffffffff168152602001908152602001600020600101541461033d576040517f08c379a000000000000000000000000000000000000000000000000000000000815260040161033490611003565b60405180910390fd5b6040518060400160405280828152602001600081525060008084815260200190815260200160002060003373ffffffffffffffffffffffffffffffffffffffff1673ffffffffffffffffffffffffffffffffffffffff16815260200190815260200160002060008201518160000190805190602001906103be929190610a43565b50602082015181600101559050505050565b600080600083815260200190815260200160002060003373ffffffffffffffffffffffffffffffffffffffff1673ffffffffffffffffffffffffffffffffffffffff16815260200190815260200160002060000180546001816001161561010002031660029004905011610479576040517f08c379a000000000000000000000000000000000000000000000000000000000815260040161047090610fc3565b60405180910390fd5b60008082815260200190815260200160002060003373ffffffffffffffffffffffffffffffffffffffff1673ffffffffffffffffffffffffffffffffffffffff16815260200190815260200160002060010160008154809291906001019190505550807f9f9312c6f3ce967e7a06c527859c7c0426adb19b12f7ad91505590202dc7524b60008084815260200190815260200160002060003373ffffffffffffffffffffffffffffffffffffffff1673ffffffffffffffffffffffffffffffffffffffff16815260200190815260200160002060000160008085815260200190815260200160002060003373ffffffffffffffffffffffffffffffffffffffff1673ffffffffffffffffffffffffffffffffffffffff168152602001908152602001600020600101546040516105b0929190610f93565b60405180910390a250565b606080606060006105ca6109a8565b905060008167ffffffffffffffff811180156105e557600080fd5b506040519080825280602002602001820160405280156106145781602001602082028036833780820191505090505b50905060008267ffffffffffffffff8111801561063057600080fd5b5060405190808252806020026020018201604052801561066457816020015b606081526020019060019003908161064f5790505b50905060008367ffffffffffffffff8111801561068057600080fd5b506040519080825280602002602001820160405280156106af5781602001602082028036833780820191505090505b5090506000805b6103e88110156108cb57600080600083815260200190815260200160002060003373ffffffffffffffffffffffffffffffffffffffff1673ffffffffffffffffffffffffffffffffffffffff16815260200190815260200160002060000180546001816001161561010002031660029004905011156108be578085838151811061073c57fe5b60200260200101818152505060008082815260200190815260200160002060003373ffffffffffffffffffffffffffffffffffffffff1673ffffffffffffffffffffffffffffffffffffffff1681526020019081526020016000206000018054600181600116156101000203166002900480601f01602080910402602001604051908101604052809291908181526020018280546001816001161561010002031660029004801561082e5780601f106108035761010080835404028352916020019161082e565b820191906000526020600020905b81548152906001019060200180831161081157829003601f168201915b505050505084838151811061083f57fe5b602002602001018190525060008082815260200190815260200160002060003373ffffffffffffffffffffffffffffffffffffffff1673ffffffffffffffffffffffffffffffffffffffff168152602001908152602001600020600101548383815181106108a957fe5b60200260200101818152505081806001019250505b80806001019150506106b6565b508383839750975097505050505050909192565b600060205281600052604060002060205280600052604060002060009150915050806000018054600181600116156101000203166002900480601f0160208091040260200160405190810160405280929190818152602001828054600181600116156101000203166002900480156109985780601f1061096d57610100808354040283529160200191610998565b820191906000526020600020905b81548152906001019060200180831161097b57829003601f168201915b5050505050908060010154905082565b600080600090505b6103e8811015610a3f57600080600083815260200190815260200160002060003373ffffffffffffffffffffffffffffffffffffffff1673ffffffffffffffffffffffffffffffffffffffff1681526020019081526020016000206000018054600181600116156101000203166002900490501115610a325781806001019250505b80806001019150506109b0565b5090565b828054600181600116156101000203166002900490600052602060002090601f016020900481019282610a795760008555610ac0565b82601f10610a9257805160ff1916838001178555610ac0565b82800160010185558215610ac0579182015b82811115610abf578251825591602001919060010190610aa4565b5b509050610acd9190610ad1565b5090565b5b80821115610aea576000816000905550600101610ad2565b5090565b6000610b01610afc84611054565b611023565b905082815260208101848484011115610b1957600080fd5b610b24848285611174565b509392505050565b600081359050610b3b816111c9565b92915050565b600082601f830112610b5257600080fd5b8135610b62848260208601610aee565b91505092915050565b600081359050610b7a816111e0565b92915050565b600060208284031215610b9257600080fd5b6000610ba084828501610b6b565b91505092915050565b60008060408385031215610bbc57600080fd5b6000610bca85828601610b6b565b9250506020610bdb85828601610b2c565b9150509250929050565b60008060408385031215610bf857600080fd5b6000610c0685828601610b6b565b925050602083013567ffffffffffffffff811115610c2357600080fd5b610c2f85828601610b41565b9150509250929050565b6000610c458383610d38565b905092915050565b6000610c598383610ef9565b60208301905092915050565b6000610c70826110b9565b610c7a81856110f4565b935083602082028501610c8c85611084565b8060005b85811015610cc85784840389528151610ca98582610c39565b9450610cb4836110da565b925060208a01995050600181019050610c90565b50829750879550505050505092915050565b6000610ce5826110c4565b610cef8185611105565b9350610cfa83611094565b8060005b83811015610d2b578151610d128882610c4d565b9750610d1d836110e7565b925050600181019050610cfe565b5085935050505092915050565b6000610d43826110cf565b610d4d8185611116565b9350610d5d818560208601611183565b610d66816111b8565b840191505092915050565b6000610d7c826110cf565b610d868185611127565b9350610d96818560208601611183565b610d9f816111b8565b840191505092915050565b600081546001811660008114610dc75760018114610ded57610e31565b607f6002830416610dd88187611127565b955060ff198316865260208601935050610e31565b60028204610dfb8187611127565b9550610e06856110a4565b60005b82811015610e2857815481890152600182019150602081019050610e09565b80880195505050505b505092915050565b6000610e46601483611127565b91507f53747564656e74206e6f7420656e726f6c6c65640000000000000000000000006000830152602082019050919050565b6000610e86601683611127565b91507f4e616d65206d757374206e6f7420626520656d707479000000000000000000006000830152602082019050919050565b6000610ec6601883611127565b91507f53747564656e7420616c726561647920656e726f6c6c656400000000000000006000830152602082019050919050565b610f028161116a565b82525050565b610f118161116a565b82525050565b60006060820190508181036000830152610f318186610cda565b90508181036020830152610f458185610c65565b90508181036040830152610f598184610cda565b9050949350505050565b60006040820190508181036000830152610f7d8185610d71565b9050610f8c6020830184610f08565b9392505050565b60006040820190508181036000830152610fad8185610daa565b9050610fbc6020830184610f08565b9392505050565b60006020820190508181036000830152610fdc81610e39565b9050919050565b60006020820190508181036000830152610ffc81610e79565b9050919050565b6000602082019050818103600083015261101c81610eb9565b9050919050565b6000604051905081810181811067ffffffffffffffff8211171561104a576110496111b6565b5b8060405250919050565b600067ffffffffffffffff82111561106f5761106e6111b6565b5b601f19601f8301169050602081019050919050565b6000819050602082019050919050565b6000819050602082019050919050565b60008190508160005260206000209050919050565b600081519050919050565b600081519050919050565b600081519050919050565b6000602082019050919050565b6000602082019050919050565b600082825260208201905092915050565b600082825260208201905092915050565b600082825260208201905092915050565b600082825260208201905092915050565b60006111438261114a565b9050919050565b600073ffffffffffffffffffffffffffffffffffffffff82169050919050565b6000819050919050565b82818337600083830152505050565b60005b838110156111a1578082015181840152602081019050611186565b838111156111b0576000848401525b50505050565bfe5b6000601f19601f8301169050919050565b6111d281611138565b81146111dd57600080fd5b50565b6111e98161116a565b81146111f457600080fd5b5056fea2646970667358221220cd41dc4162346dc6d3e2bd2b77bec5d7b6e0cd6287ddb5fea5b2411b05a3961164736f6c63430007060033",
  "immutableReferences": {},
  "source": "pragma solidity >=0.6.0 <0.8.0;\npragma experimental ABIEncoderV2;\ncontract AttendanceContract {\n    // Define structure for a student\n    struct Student {\n        string name;\n        uint attendance;\n    }\n    \n    // Mapping to store student information\n    mapping(uint => mapping(address => Student)) public students;\n    \n    // Event to track attendance marking\n    event AttendanceMarked(uint indexed studentId, string name, uint attendance);\n    \n    // Function to enroll a student\n    function enrollStudent(uint _studentId, string memory _name) public {\n        require(bytes(_name).length > 0, \"Name must not be empty\");\n        require(students[_studentId][msg.sender].attendance == 0, \"Student already enrolled\");\n        \n        students[_studentId][msg.sender] = Student(_name, 0);\n    }\n    \n    // Function to mark attendance for a class\n    function markAttendance(uint _studentId) public {\n        require(bytes(students[_studentId][msg.sender].name).length > 0, \"Student not enrolled\");\n        \n        students[_studentId][msg.sender].attendance++;\n        emit AttendanceMarked(_studentId, students[_studentId][msg.sender].name, students[_studentId][msg.sender].attendance);\n    }\n    \n    // Function to get attendance of a student for a specific class\n    function getStudentAttendance(uint _studentId) public view returns(string memory, uint) {\n        return (students[_studentId][msg.sender].name, students[_studentId][msg.sender].attendance);\n    }\n    \n    // Function to get attendance of all students for a specific class\n    function getClassAttendance() public view returns(uint[] memory, string[] memory, uint[] memory) {\n        uint length = getEnrolledStudentsCount();\n        \n        uint[] memory studentIds = new uint[](length);\n        string[] memory studentNames = new string[](length);\n        uint[] memory studentAttendances = new uint[](length);\n        \n        uint index = 0;\n        for (uint i = 0; i < 1000; i++) { // Assuming maximum student ID is 1000\n            if (bytes(students[i][msg.sender].name).length > 0) {\n                studentIds[index] = i;\n                studentNames[index] = students[i][msg.sender].name;\n                studentAttendances[index] = students[i][msg.sender].attendance;\n                index++;\n            }\n        }\n        \n        return (studentIds, studentNames, studentAttendances);\n    }\n    \n    // Function to get the count of enrolled students for a specific class\n    function getEnrolledStudentsCount() internal view returns (uint count) {\n        for (uint i = 0; i < 1000; i++) { // Assuming maximum student ID is 1000\n            if (bytes(students[i][msg.sender].name).length > 0) {\n                count++;\n            }\n        }\n    }\n}\n",
  "sourcePath": "/Users/bharadwaj_kota/Desktop/vscode_/Web Dev/BLockchain Project/contracts/AttendanceContract.sol",
  "compiler": {
    "name": "solc",
    "version": "0.7.6+commit.7338295f.Emscripten.clang"
  },
  "schemaVersion": "3.4.16",
  "updatedAt": "2024-04-25T03:51:27.985Z",
  "networkType": "ethereum",
  "devdoc": {
    "kind": "dev",
    "methods": {},
    "version": 1
  },
  "userdoc": {
    "kind": "user",
    "methods": {},
    "version": 1
  }
}